:02000000B22C20
:10000800FF00030E8301EC000A08EB008A01700868
:10001800A9007108A8007208A7007308A600740850
:10002800A5007508A4007B08A3007C08A2007D0831
:10003800A1000408AA000C1F4B280C132E08013A33
:10004800031D2E284B08553E84001E088000CB0A4D
:10005800013087062E08023A031D3F284B08693EE7
:1000680084001E088000CB0A4B08023A031D3D2875
:10007800CB01013087062E08033A031D4B284B0895
:10008800AF3E84001E088000CB0A013087068B1C17
:1000980058288B108B161F150B120130AE001A3022
:1000A800FD00FD0B552800000B1DEB280B1103303C
:1000B8002E0203186128563081002E08033A031DCA
:1000C8006728103081003C304B02031871281F1537
:1000D8001A30FD00FD0B6E2800002E08023A031DA1
:1000E800BD284B08003A031DBD284E08D0004F0814
:1000F800D10069086A02F100F201031CF2037108D9
:10010800CC007208CD007108F4007208F500F40DF7
:10011800F50D74100330F2004E08F0004F08F1009E
:10012800720803199C28F00DF10D7010FF3E9528F8
:1001380070087407F20075080318013E7107F30090
:100148007208CE007308CF0080307306F00080304C
:100158007002031DB128003072020318BD28033055
:10016800AE00CB011F151A30FD00FD0BB9280000A9
:1001780087144B08143A031DDC282E08013A031D86
:10018800DC280230AE00CB010430FB000C30FC0050
:100198003330FD00FD0BCE28FC0BCE28FB0BCE2800
:1001A800000000001F151A30FD00FD0BD9280000C3
:1001B8004B083C3A031DEB282E08033A031DEB2895
:1001C8000130B2008B1283160C1383121F102908FA
:1001D800F0002808F1002708F2002608F300250897
:1001E800F4002408F5002308FB002208FC0021087D
:1001F800FD002A0884006B088A006C0E8300FF0E3D
:040208007F0E09005C
:0A020C0000000000000000000800E0
:10021600423083120313FD00FD0B0F290000080076
:100226001D3083120313FC009130FD00FD0B1929CC
:06023600FC0B1929080071
:0E023C00F201F101F001F801F30100300800B9
:10024A0083120313F801F9011030FC00710DF80D47
:10025A00F90D7408F8027508031C750FF9020318E2
:10026A003D297408F80775080318750FF907031074
:0A027A00F00DF10DFC0B2B2908001C
:1002840083120317961B4829061249290616161BC2
:100294004D2986124E298616961A52290613532979
:1002A4000617161A57298613582986170313521846
:1002B4005D2906155E290611861506218611031788
:1002C4009619662906126729061616196B298612CD
:1002D4006C298616961870290613712906171618A4
:1002E4007529861376298617031352187B29061558
:1002F4007C290611861506218611521C8329132197
:0603040084290B21080012
:10030A007B15FB1F8F290130F300F201F101F00187
:08031A00FA0DF20CFF3008009F
:08032200FA1FF213003008007D
:10032A007B14FB1FA029F201FA1FFF30F200F10033
:0A033A00F000FA0DF20CFF3008008D
:1003440083120313521083166F0883120317960047
:06035400422152140800D2
:10035A0083160313EF0105306F020318BF296F08D4
:10036A0083120317140784002030800083160313B6
:10037A00EF0AB0296F08831203171407840080015B
:10038A0083160313EF036F088312031714079500EC
:10039A000A30F400F5011208F0001308F1002521D3
:1003AA007808F0007908F1003030F00703171508D3
:1003BA008400700880000A30F400F5011208F00089
:1003CA001308F100252170080317920071089300A1
:1003DA0000307106031DF32900307006031DF6294B
:0C03EA00FA2983160313EF03C82908004A
:1003F600FB14FB1F052AFF30F300F200F100F000AA
:08040600FA0DF20CFF300800B2
:0E040E008312031354088A005308820008006A
:10041C00A0017208031D232A7108F2007008F10074
:10042C00F001A0157208031D232A7108F200F101D6
:10043C00A011201672080319312A2008F302031D9B
:10044C00031C352A0310F21B392AF00DF10DF20DA5
:10045C00F30B292A352A0130FC001E213C2A0230DC
:0E046C00FC0085213C2A0430FC009121080090
:06047A00FB15FF30080035
:10048000831203137408003A031D5B2A7508003AAF
:10049000031D5B2A7608003A031D5B2A7708003AA1
:1004A000031D5B2AFF30F000FF30F1007F30F200C7
:1004B000FF30F30008008312031377080319EA2AB8
:1004C00073080319ED2A720876068039FA00F217CC
:1004D000F617A0017208F8007108FC007008FD0012
:1004E0007408FD027508031C750FFC027608031CD6
:1004F000760FF802F801FC01FD01031C862A0310A7
:10050000F20CF10CF00CF80C0130A0007708F302AB
:10051000031C902A7E302007F3070318F02A952A3F
:100520007E302007F307031CF32A1830FA07FD0D6D
:10053000FC0DF80DF00DF10DF20DA00D7408F00298
:100540007508031C750FF1027608031C760FF20282
:10055000760DA004201CAE2A7D14B92A7408F00779
:1005600075080318750FF10776080318760AF20765
:100570007D10FA031F307A05031D972A7B1B7D1C13
:10058000E02A0310F00DF10DF20DA00D7408F00239
:100590007508031C750FF1027608031C760FF20232
:1005A000760D20040139FD070318FC0A0319F80A27
:1005B000031DE02AF80CFC0CFD0CF30A0319F02AC9
:1005C000FA1FF8137808F2007C08F1007D08F000AB
:1005D0000030F52A01303D22F52A02301E21F52A8D
:0E05E0000430FB21F52A0830852100000800B8
:1005EE0083160313ED01EE0183126D0803179000BD
:1005FE0003136E0803179100803003136E06F0008C
:10060E0080307002031D0D2B00306D020318202B5D
:10061E0001308316ED000030EE0083126D08003CB1
:10062E000317900003136E08031C013E031791017C
:10063E0091020317100892001108930003136F081C
:10064E0003179400AD21063083160313EB00003020
:10065E00EC006C08003C031D362B6B08003C0318A5
:10066E00552B6B0883126F07F200013083166B0255
:10067E00F0000030031C013E6C02F1007008831282
:10068E006F0784000008F000720884007008800074
:10069E0001308316EB02031CEC03302B83126F0820
:1006AE0084002030800083166D086E040319792BA8
:1006BE00EB01EC016B0883126F0784000008203AEF
:1006CE00031D6E2B8316EB0A0319EC0A612B83169E
:1006DE000130EB02031CEC036B0883126F078400DE
:0606EE002D308000080021
:1006F400831203137008F8007108F000F101F2018D
:10070400F301FB01FC019630F300FA01F01F902B7A
:10071400F809F009F80A0319F00AFA177008F10049
:0C0724007808F000F801F2010E22080035
:10073000831203137008F100F0010830FC00710807
:10074000F40C0318A72BFC0BA02BF10100340310B1
:10075000AC2BF40C0318F107F10CF00CFC0BA92BDB
:0207600008008F
:1007620083160313861106118613061386120612C8
:10077200831286110611061286120613861313219E
:1007820013211321061786178615062186111321B8
:10079200861506218611132186150621861113213D
:1007A20086138615062186111321861506218611C8
:1007B20006130616861506218611132106128617C0
:1007C20086150621861186138615062186111321A8
:1007D2008615062186118617861506218611132194
:1007E20086138615062186110616861606178617A3
:0C07F20086150621861113215214080000
:1007FE0007228A110A128000840AD30A0319D40A26
:08080E00F003031DFF2B08009D
:1008160083120313FB01FC01FA01730803194A2C26
:10082600F2178E30F302F31B1B2C03191B2C4D2CD5
:10083600F309F30A08307302031C302CF300F10DA0
:100846007208F100F20108307302031C302CF10D1E
:10085600F1017308031D0310382C73080319382C93
:100866000310F20CF10CF30B332C7B1B711C422C86
:10087600031C422CF10A0319F20AF21B592CFA1F27
:100886005C2CF209F109F10A0319F20A5C2CF20157
:10089600F1015C2C7B14FB1F5F2CF201FA1F5F2C0D
:1008A600FF30F200F100FA0DF20C5F2C0130FC0073
:1008B600612C0030FC00612CFF30FC00FC080319A1
:0E08C600652C95217108F0007208F100080001
:1008D4007C2C803083120313ED008F2CC030ED008C
:1008E4008F2C9430ED008F2CD430ED008F2C803081
:1008F400ED008F2C831203136D08013A03196B2C3E
:100904006D08023A0319702C6D08033A0319732C0D
:100914006D08043A0319762C792C6E03F0006D08E7
:10092400F0077008ED00700803179600422152107A
:100934008316EB016B0883126F0784000008031908
:10094400AF2C83166B0883126F078400000883168C
:10095400EF00A2218316EB0A9C2C83125214080088
:1009640096250730831603139C00013083129F00E1
:100974000E3083169F00F0308B00833081000C17FB
:100984005630831281008B12FF3083168500FF30AE
:100994008600F0308700FF30880083128701B1237E
:1009A40001300317960042210C30031796004221B0
:1009B4000130ED000130EE003D30EF006A243208D2
:1009C400013A031D672D5508AE00AF0114302F0204
:1009D4000318FA2C2F08553E84002E080002031831
:1009E400F82C2F08553E84000008AE00AF0AE82C0E
:1009F4002E08F0000F30F40098237A233330F400EB
:100A04003330F5002330F6008030F70040220B2409
:100A14007008B0007108B1007008ED007108EE00B4
:100A2400A030EF00F722013083120313ED000A30E7
:100A3400EE00A030EF006A2483162F088312AE0064
:100A4400AF013C302F020318352D2F08AF3E840030
:100A54002E0800020318332D2F08AF3E840000082F
:100A6400AE00AF0A232D0130ED000130EE0033302B
:100A7400EF006A240230ED000130EE002B30EF006D
:100A84006A242E08F0000F30F40098237A233330C0
:100A9400F4003330F5002330F6008030F7004022B4
:100AA4000B247008B0007108B1007008ED007108E3
:100AB400EE00A030EF00F722023083120313ED00A2
:0E0AC4000A30EE00A030EF006A24E12C682D0D
:100B2C002B308400273083120313F0006E30D30077
:080B3C000530D400FF2308007E
:060ADC00563432340034F0
:020AE2000034DE
:020AE4000034DC
:040AE60000340034A4
:020AEA000034D6
:100AEC005634313420342034203420342034203413
:040AFC00203400346E
:100B000041346734753461347234643461346E3422
:0C0B100064346F342E342E342E34003444
:020B1C000034A3
:040B1E00003400346B
:040B22000034003467
:040B26000034003463
:02400E004A2F37
:00000001FF
